{
  "_format": "hh-sol-artifact-1",
  "contractName": "DietChallenge",
  "sourceName": "contracts/DietChallenge.sol",
  "abi": [
    {
      "inputs": [
        {
          "internalType": "uint256",
          "name": "_duration",
          "type": "uint256"
        },
        {
          "internalType": "uint256",
          "name": "_wait",
          "type": "uint256"
        }
      ],
      "stateMutability": "nonpayable",
      "type": "constructor"
    },
    {
      "anonymous": false,
      "inputs": [
        {
          "indexed": false,
          "internalType": "uint256",
          "name": "valueLocked",
          "type": "uint256"
        },
        {
          "indexed": false,
          "internalType": "uint256",
          "name": "totalValueLocked",
          "type": "uint256"
        },
        {
          "indexed": false,
          "internalType": "uint256",
          "name": "totalUsers",
          "type": "uint256"
        }
      ],
      "name": "DepositCreated",
      "type": "event"
    },
    {
      "anonymous": false,
      "inputs": [
        {
          "indexed": false,
          "internalType": "uint256",
          "name": "totalResultsSubmitted",
          "type": "uint256"
        }
      ],
      "name": "ResultSubmitted",
      "type": "event"
    },
    {
      "anonymous": false,
      "inputs": [
        {
          "indexed": false,
          "internalType": "uint256",
          "name": "totalWinners",
          "type": "uint256"
        },
        {
          "indexed": false,
          "internalType": "uint256",
          "name": "winningAmount",
          "type": "uint256"
        }
      ],
      "name": "ResultsTallied",
      "type": "event"
    },
    {
      "anonymous": false,
      "inputs": [
        {
          "indexed": false,
          "internalType": "uint256",
          "name": "valueWithdrawn",
          "type": "uint256"
        },
        {
          "indexed": false,
          "internalType": "uint256",
          "name": "remainingValue",
          "type": "uint256"
        }
      ],
      "name": "WithdrawCreated",
      "type": "event"
    },
    {
      "anonymous": false,
      "inputs": [
        {
          "indexed": false,
          "internalType": "enum DietChallenge.WorkflowStatus",
          "name": "newStatus",
          "type": "uint8"
        }
      ],
      "name": "WorkflowStatusChanged",
      "type": "event"
    },
    {
      "inputs": [],
      "name": "adminAddress",
      "outputs": [
        {
          "internalType": "address",
          "name": "",
          "type": "address"
        }
      ],
      "stateMutability": "view",
      "type": "function"
    },
    {
      "inputs": [
        {
          "internalType": "string",
          "name": "ipfsHash",
          "type": "string"
        },
        {
          "internalType": "uint256",
          "name": "weightGoal",
          "type": "uint256"
        }
      ],
      "name": "deposit",
      "outputs": [],
      "stateMutability": "payable",
      "type": "function"
    },
    {
      "inputs": [],
      "name": "dueDate",
      "outputs": [
        {
          "internalType": "uint256",
          "name": "",
          "type": "uint256"
        }
      ],
      "stateMutability": "view",
      "type": "function"
    },
    {
      "inputs": [],
      "name": "forceDueDate",
      "outputs": [],
      "stateMutability": "nonpayable",
      "type": "function"
    },
    {
      "inputs": [],
      "name": "freezeFunds",
      "outputs": [],
      "stateMutability": "nonpayable",
      "type": "function"
    },
    {
      "inputs": [],
      "name": "getAllUserInfo",
      "outputs": [
        {
          "components": [
            {
              "internalType": "address payable",
              "name": "owner",
              "type": "address"
            },
            {
              "components": [
                {
                  "internalType": "uint256",
                  "name": "weight",
                  "type": "uint256"
                },
                {
                  "internalType": "string",
                  "name": "ipfsHash",
                  "type": "string"
                }
              ],
              "internalType": "struct DietChallenge.Result",
              "name": "goal",
              "type": "tuple"
            },
            {
              "components": [
                {
                  "internalType": "uint256",
                  "name": "weight",
                  "type": "uint256"
                },
                {
                  "internalType": "string",
                  "name": "ipfsHash",
                  "type": "string"
                }
              ],
              "internalType": "struct DietChallenge.Result",
              "name": "actual",
              "type": "tuple"
            },
            {
              "internalType": "uint256",
              "name": "valueLocked",
              "type": "uint256"
            },
            {
              "internalType": "bool",
              "name": "reached",
              "type": "bool"
            }
          ],
          "internalType": "struct DietChallenge.UserAttributes[]",
          "name": "",
          "type": "tuple[]"
        }
      ],
      "stateMutability": "view",
      "type": "function"
    },
    {
      "inputs": [],
      "name": "getTotalValueLocked",
      "outputs": [
        {
          "internalType": "uint256",
          "name": "",
          "type": "uint256"
        }
      ],
      "stateMutability": "view",
      "type": "function"
    },
    {
      "inputs": [],
      "name": "getWorkflowStatus",
      "outputs": [
        {
          "internalType": "enum DietChallenge.WorkflowStatus",
          "name": "",
          "type": "uint8"
        },
        {
          "internalType": "bool",
          "name": "",
          "type": "bool"
        },
        {
          "internalType": "bool",
          "name": "",
          "type": "bool"
        }
      ],
      "stateMutability": "view",
      "type": "function"
    },
    {
      "inputs": [],
      "name": "isLocked",
      "outputs": [
        {
          "internalType": "bool",
          "name": "",
          "type": "bool"
        }
      ],
      "stateMutability": "view",
      "type": "function"
    },
    {
      "inputs": [],
      "name": "isRoundOver",
      "outputs": [
        {
          "internalType": "bool",
          "name": "",
          "type": "bool"
        }
      ],
      "stateMutability": "view",
      "type": "function"
    },
    {
      "inputs": [],
      "name": "name",
      "outputs": [
        {
          "internalType": "string",
          "name": "",
          "type": "string"
        }
      ],
      "stateMutability": "view",
      "type": "function"
    },
    {
      "inputs": [],
      "name": "releaseFunds",
      "outputs": [],
      "stateMutability": "nonpayable",
      "type": "function"
    },
    {
      "inputs": [],
      "name": "restart",
      "outputs": [],
      "stateMutability": "nonpayable",
      "type": "function"
    },
    {
      "inputs": [
        {
          "internalType": "string",
          "name": "ipfsHash",
          "type": "string"
        },
        {
          "internalType": "uint256",
          "name": "weightActual",
          "type": "uint256"
        }
      ],
      "name": "submitResult",
      "outputs": [],
      "stateMutability": "nonpayable",
      "type": "function"
    },
    {
      "inputs": [],
      "name": "symbol",
      "outputs": [
        {
          "internalType": "string",
          "name": "",
          "type": "string"
        }
      ],
      "stateMutability": "view",
      "type": "function"
    },
    {
      "inputs": [],
      "name": "totalResultsSubmitted",
      "outputs": [
        {
          "internalType": "uint256",
          "name": "",
          "type": "uint256"
        }
      ],
      "stateMutability": "view",
      "type": "function"
    },
    {
      "inputs": [],
      "name": "totalUsers",
      "outputs": [
        {
          "internalType": "uint256",
          "name": "",
          "type": "uint256"
        }
      ],
      "stateMutability": "view",
      "type": "function"
    },
    {
      "inputs": [],
      "name": "totalValueLocked",
      "outputs": [
        {
          "internalType": "uint256",
          "name": "",
          "type": "uint256"
        }
      ],
      "stateMutability": "view",
      "type": "function"
    },
    {
      "inputs": [],
      "name": "totalWinners",
      "outputs": [
        {
          "internalType": "uint256",
          "name": "",
          "type": "uint256"
        }
      ],
      "stateMutability": "view",
      "type": "function"
    },
    {
      "inputs": [
        {
          "internalType": "address",
          "name": "",
          "type": "address"
        }
      ],
      "name": "tvlByUser",
      "outputs": [
        {
          "internalType": "address payable",
          "name": "owner",
          "type": "address"
        },
        {
          "components": [
            {
              "internalType": "uint256",
              "name": "weight",
              "type": "uint256"
            },
            {
              "internalType": "string",
              "name": "ipfsHash",
              "type": "string"
            }
          ],
          "internalType": "struct DietChallenge.Result",
          "name": "goal",
          "type": "tuple"
        },
        {
          "components": [
            {
              "internalType": "uint256",
              "name": "weight",
              "type": "uint256"
            },
            {
              "internalType": "string",
              "name": "ipfsHash",
              "type": "string"
            }
          ],
          "internalType": "struct DietChallenge.Result",
          "name": "actual",
          "type": "tuple"
        },
        {
          "internalType": "uint256",
          "name": "valueLocked",
          "type": "uint256"
        },
        {
          "internalType": "bool",
          "name": "reached",
          "type": "bool"
        }
      ],
      "stateMutability": "view",
      "type": "function"
    },
    {
      "inputs": [
        {
          "internalType": "uint256",
          "name": "",
          "type": "uint256"
        }
      ],
      "name": "userAddresses",
      "outputs": [
        {
          "internalType": "address",
          "name": "",
          "type": "address"
        }
      ],
      "stateMutability": "view",
      "type": "function"
    },
    {
      "inputs": [],
      "name": "winningAmount",
      "outputs": [
        {
          "internalType": "uint256",
          "name": "",
          "type": "uint256"
        }
      ],
      "stateMutability": "view",
      "type": "function"
    },
    {
      "inputs": [],
      "name": "withdraw",
      "outputs": [],
      "stateMutability": "nonpayable",
      "type": "function"
    },
    {
      "inputs": [],
      "name": "withdrawAll",
      "outputs": [],
      "stateMutability": "nonpayable",
      "type": "function"
    },
    {
      "inputs": [],
      "name": "workflowStatus",
      "outputs": [
        {
          "internalType": "enum DietChallenge.WorkflowStatus",
          "name": "",
          "type": "uint8"
        }
      ],
      "stateMutability": "view",
      "type": "function"
    }
  ],
  "bytecode": "0x60806040526040518060400160405280600d81526020017f446965744368616c6c656e6765000000000000000000000000000000000000008152506000908051906020019062000051929190620001e8565b506040518060400160405280600481526020017f4449455400000000000000000000000000000000000000000000000000000000815250600190805190602001906200009f929190620001e8565b506000600260006101000a81548160ff0219169083151502179055506000600260016101000a81548160ff021916908315150217905550348015620000e357600080fd5b506040516200338f3803806200338f8339818101604052810190620001099190620002af565b33600a60006101000a81548173ffffffffffffffffffffffffffffffffffffffff021916908373ffffffffffffffffffffffffffffffffffffffff16021790555081600c8190555080600d819055506000600260006101000a81548160ff0219169083151502179055506000600260016101000a81548160ff0219169083151502179055506000600e60006101000a81548160ff02191690836002811115620001db577f4e487b7100000000000000000000000000000000000000000000000000000000600052602160045260246000fd5b0217905550505062000379565b828054620001f690620002fa565b90600052602060002090601f0160209004810192826200021a576000855562000266565b82601f106200023557805160ff191683800117855562000266565b8280016001018555821562000266579182015b828111156200026557825182559160200191906001019062000248565b5b50905062000275919062000279565b5090565b5b80821115620002945760008160009055506001016200027a565b5090565b600081519050620002a9816200035f565b92915050565b60008060408385031215620002c357600080fd5b6000620002d38582860162000298565b9250506020620002e68582860162000298565b9150509250929050565b6000819050919050565b600060028204905060018216806200031357607f821691505b602082108114156200032a576200032962000330565b5b50919050565b7f4e487b7100000000000000000000000000000000000000000000000000000000600052602260045260246000fd5b6200036a81620002f0565b81146200037657600080fd5b50565b61300680620003896000396000f3fe6080604052600436106101665760003560e01c80638e27d719116100d1578063bcc941b61161008a578063d3f42d2411610064578063d3f42d2414610491578063ec18154e146104bc578063f75d64a6146104e7578063fc6f94681461051457610166565b8063bcc941b6146103fa578063bff1f9e114610425578063c9e975b21461045057610166565b80638e27d7191461030757806395d89b411461032357806398f22c121461034e578063a1edffa214610379578063a4e2d634146103a4578063b26025aa146103cf57610166565b8063502c9bd511610123578063502c9bd51461023157806369d895751461026e5780637664e22614610285578063786716fe146102ae57806379978198146102d9578063853828b6146102f057610166565b806306fdde031461016b57806318c9273a146101965780631ef3755d146101ad578063305876a7146101c45780633ccfd60b146101ef5780634b6f1e8b14610206575b600080fd5b34801561017757600080fd5b5061018061053f565b60405161018d9190612977565b60405180910390f35b3480156101a257600080fd5b506101ab6105cd565b005b3480156101b957600080fd5b506101c2610674565b005b3480156101d057600080fd5b506101d96109a3565b6040516101e6919061290a565b60405180910390f35b3480156101fb57600080fd5b506102046109b6565b005b34801561021257600080fd5b5061021b610d15565b6040516102289190612b59565b60405180910390f35b34801561023d57600080fd5b506102586004803603810190610253919061214f565b610d1b565b604051610265919061286c565b60405180910390f35b34801561027a57600080fd5b50610283610d5a565b005b34801561029157600080fd5b506102ac60048036038101906102a791906120fb565b610fc6565b005b3480156102ba57600080fd5b506102c3611231565b6040516102d09190612b59565b60405180910390f35b3480156102e557600080fd5b506102ee611237565b005b3480156102fc57600080fd5b506103056113ed565b005b610321600480360381019061031c91906120fb565b611513565b005b34801561032f57600080fd5b506103386117df565b6040516103459190612977565b60405180910390f35b34801561035a57600080fd5b5061036361186d565b6040516103709190612b59565b60405180910390f35b34801561038557600080fd5b5061038e611873565b60405161039b9190612925565b60405180910390f35b3480156103b057600080fd5b506103b9611886565b6040516103c6919061290a565b60405180910390f35b3480156103db57600080fd5b506103e4611899565b6040516103f19190612b59565b60405180910390f35b34801561040657600080fd5b5061040f6118a1565b60405161041c9190612b59565b60405180910390f35b34801561043157600080fd5b5061043a6118a7565b6040516104479190612b59565b60405180910390f35b34801561045c57600080fd5b50610477600480360381019061047291906120d2565b6118ad565b604051610488959493929190612887565b60405180910390f35b34801561049d57600080fd5b506104a6611a5c565b6040516104b391906128e8565b60405180910390f35b3480156104c857600080fd5b506104d1611dd9565b6040516104de9190612b59565b60405180910390f35b3480156104f357600080fd5b506104fc611ddf565b60405161050b93929190612940565b60405180910390f35b34801561052057600080fd5b50610529611e1f565b604051610536919061286c565b60405180910390f35b6000805461054c90612e17565b80601f016020809104026020016040519081016040528092919081815260200182805461057890612e17565b80156105c55780601f1061059a576101008083540402835291602001916105c5565b820191906000526020600020905b8154815290600101906020018083116105a857829003601f168201915b505050505081565b600a60009054906101000a900473ffffffffffffffffffffffffffffffffffffffff1673ffffffffffffffffffffffffffffffffffffffff163373ffffffffffffffffffffffffffffffffffffffff161461065d576040517f08c379a000000000000000000000000000000000000000000000000000000000815260040161065490612ad9565b60405180910390fd5b620151804261066c9190612d22565b600381905550565b600a60009054906101000a900473ffffffffffffffffffffffffffffffffffffffff1673ffffffffffffffffffffffffffffffffffffffff163373ffffffffffffffffffffffffffffffffffffffff1614610704576040517f08c379a00000000000000000000000000000000000000000000000000000000081526004016106fb90612ad9565b60405180910390fd5b60011515600260019054906101000a900460ff16151514801561073a575060001515600260009054906101000a900460ff161515145b610779576040517f08c379a000000000000000000000000000000000000000000000000000000000815260040161077090612a79565b60405180910390fd5b610781611e45565b610789611e62565b6000600581905550600060068190555060006007819055506000600881905550600060038190555060005b6009805490508110156108fb57600b6000600983815481106107ff577f4e487b7100000000000000000000000000000000000000000000000000000000600052603260045260246000fd5b9060005260206000200160009054906101000a900473ffffffffffffffffffffffffffffffffffffffff1673ffffffffffffffffffffffffffffffffffffffff1673ffffffffffffffffffffffffffffffffffffffff168152602001908152602001600020600080820160006101000a81549073ffffffffffffffffffffffffffffffffffffffff0219169055600182016000808201600090556001820160006108a99190611ecf565b5050600382016000808201600090556001820160006108c89190611ecf565b505060058201600090556006820160006101000a81549060ff0219169055505080806108f390612e49565b9150506107b4565b506009600061090a9190611f0f565b6000600e60006101000a81548160ff02191690836002811115610956577f4e487b7100000000000000000000000000000000000000000000000000000000600052602160045260246000fd5b02179055507fb8b04218a34924533c0cb5f3c199a94e5a3534e8bcf1e27ff26ab5e8f0dd2a6c600e60009054906101000a900460ff166040516109999190612925565b60405180910390a1565b600260019054906101000a900460ff1681565b60011515600260019054906101000a900460ff1615151480156109ec575060001515600260009054906101000a900460ff161515145b610a2b576040517f08c379a0000000000000000000000000000000000000000000000000000000008152600401610a2290612a79565b60405180910390fd5b60011515600b60003373ffffffffffffffffffffffffffffffffffffffff1673ffffffffffffffffffffffffffffffffffffffff16815260200190815260200160002060060160009054906101000a900460ff16151514610ac1576040517f08c379a0000000000000000000000000000000000000000000000000000000008152600401610ab890612a19565b60405180910390fd5b6000600b60003373ffffffffffffffffffffffffffffffffffffffff1673ffffffffffffffffffffffffffffffffffffffff1681526020019081526020016000206005015411610b46576040517f08c379a0000000000000000000000000000000000000000000000000000000008152600401610b3d90612a59565b60405180910390fd5b600060045411610b8b576040517f08c379a0000000000000000000000000000000000000000000000000000000008152600401610b8290612a39565b60405180910390fd5b600060085411610bd0576040517f08c379a0000000000000000000000000000000000000000000000000000000008152600401610bc7906129b9565b60405180910390fd5b60085460045410610c29573373ffffffffffffffffffffffffffffffffffffffff166108fc6008549081150290604051600060405180830381858888f19350505050158015610c23573d6000803e3d6000fd5b50610c73565b3373ffffffffffffffffffffffffffffffffffffffff166108fc6004549081150290604051600060405180830381858888f19350505050158015610c71573d6000803e3d6000fd5b505b60085460046000828254610c879190612d22565b925050819055506000600b60003373ffffffffffffffffffffffffffffffffffffffff1673ffffffffffffffffffffffffffffffffffffffff168152602001908152602001600020600501819055507fe7b7ea132132f9029e4c23ed77f73b9d73516f3938f82dc4ac52522464063fb8600854600454604051610d0b929190612b74565b60405180910390a1565b60065481565b60098181548110610d2b57600080fd5b906000526020600020016000915054906101000a900473ffffffffffffffffffffffffffffffffffffffff1681565b600a60009054906101000a900473ffffffffffffffffffffffffffffffffffffffff1673ffffffffffffffffffffffffffffffffffffffff163373ffffffffffffffffffffffffffffffffffffffff1614610dea576040517f08c379a0000000000000000000000000000000000000000000000000000000008152600401610de190612ad9565b60405180910390fd5b60011515600260009054906101000a900460ff161515148015610e20575060001515600260019054906101000a900460ff161515145b610e5f576040517f08c379a0000000000000000000000000000000000000000000000000000000008152600401610e5690612b39565b60405180910390fd5b42600d54600354610e709190612c9b565b10610eb0576040517f08c379a0000000000000000000000000000000000000000000000000000000008152600401610ea790612b19565b60405180910390fd5b60006007541115610ed657600754600454610ecb9190612cf1565b600881905550610ee0565b6004546008819055505b610ee8611e45565b610ef0611e7f565b6002600e60006101000a81548160ff02191690836002811115610f3c577f4e487b7100000000000000000000000000000000000000000000000000000000600052602160045260246000fd5b02179055507f16cc0ead87c6408ca30dd236c04a7843ba1b868176d77b1b0fe643fe8cdefbbd600754600854604051610f76929190612b74565b60405180910390a17fb8b04218a34924533c0cb5f3c199a94e5a3534e8bcf1e27ff26ab5e8f0dd2a6c600e60009054906101000a900460ff16604051610fbc9190612925565b60405180910390a1565b426003541061100a576040517f08c379a000000000000000000000000000000000000000000000000000000000815260040161100190612af9565b60405180910390fd5b60011515600260009054906101000a900460ff161515148015611040575060001515600260019054906101000a900460ff161515145b61107f576040517f08c379a000000000000000000000000000000000000000000000000000000000815260040161107690612ab9565b60405180910390fd5b6000600b60003373ffffffffffffffffffffffffffffffffffffffff1673ffffffffffffffffffffffffffffffffffffffff16815260200190815260200160002090503373ffffffffffffffffffffffffffffffffffffffff168160000160009054906101000a900473ffffffffffffffffffffffffffffffffffffffff1673ffffffffffffffffffffffffffffffffffffffff1614611154576040517f08c379a000000000000000000000000000000000000000000000000000000000815260040161114b906129f9565b60405180910390fd5b60405180604001604052808381526020018481525081600301600082015181600001556020820151816001019080519060200190611193929190611f30565b50905050818160010160000154106111db5760018160060160006101000a81548160ff021916908315150217905550600760008154809291906111d590612e49565b91905055505b600660008154809291906111ee90612e49565b91905055507f3cedd85a821054e133fbf5f696f78f7014a6b1dfe7c8892560faeaddd80fd0676006546040516112249190612b59565b60405180910390a1505050565b60035481565b600a60009054906101000a900473ffffffffffffffffffffffffffffffffffffffff1673ffffffffffffffffffffffffffffffffffffffff163373ffffffffffffffffffffffffffffffffffffffff16146112c7576040517f08c379a00000000000000000000000000000000000000000000000000000000081526004016112be90612ad9565b60405180910390fd5b60001515600260019054906101000a900460ff1615151480156112fd575060001515600260009054906101000a900460ff161515145b61133c576040517f08c379a000000000000000000000000000000000000000000000000000000000815260040161133390612a99565b60405180910390fd5b611344611e9c565b61134c611eb2565b611354611e62565b6001600e60006101000a81548160ff021916908360028111156113a0577f4e487b7100000000000000000000000000000000000000000000000000000000600052602160045260246000fd5b02179055507fb8b04218a34924533c0cb5f3c199a94e5a3534e8bcf1e27ff26ab5e8f0dd2a6c600e60009054906101000a900460ff166040516113e39190612925565b60405180910390a1565b600a60009054906101000a900473ffffffffffffffffffffffffffffffffffffffff1673ffffffffffffffffffffffffffffffffffffffff163373ffffffffffffffffffffffffffffffffffffffff161461147d576040517f08c379a000000000000000000000000000000000000000000000000000000000815260040161147490612ad9565b60405180910390fd5b3373ffffffffffffffffffffffffffffffffffffffff166108fc479081150290604051600060405180830381858888f193505050501580156114c3573d6000803e3d6000fd5b50600060048190555060006008819055507fe7b7ea132132f9029e4c23ed77f73b9d73516f3938f82dc4ac52522464063fb8600854600454604051611509929190612b74565b60405180910390a1565b60001515600260019054906101000a900460ff161515148015611549575060001515600260009054906101000a900460ff161515145b611588576040517f08c379a000000000000000000000000000000000000000000000000000000000815260040161157f90612a99565b60405180910390fd5b6000349050600081116115d0576040517f08c379a00000000000000000000000000000000000000000000000000000000081526004016115c790612999565b60405180910390fd5b6000600b60003373ffffffffffffffffffffffffffffffffffffffff1673ffffffffffffffffffffffffffffffffffffffff1681526020019081526020016000209050600081600501541461165a576040517f08c379a0000000000000000000000000000000000000000000000000000000008152600401611651906129d9565b60405180910390fd5b338160000160006101000a81548173ffffffffffffffffffffffffffffffffffffffff021916908373ffffffffffffffffffffffffffffffffffffffff160217905550604051806040016040528084815260200185815250816001016000820151816000015560208201518160010190805190602001906116dc929190611f30565b5090505081816005018190555060008160060160006101000a81548160ff02191690831515021790555081600460008282546117189190612c9b565b925050819055506005600081548092919061173290612e49565b91905055506009339080600181540180825580915050600190039060005260206000200160009091909190916101000a81548173ffffffffffffffffffffffffffffffffffffffff021916908373ffffffffffffffffffffffffffffffffffffffff1602179055507f414ddba7f3fb1bebab819467f52b3eefe63284b1ded6fe1846020501da5c0f72826004546005546040516117d193929190612b9d565b60405180910390a150505050565b600180546117ec90612e17565b80601f016020809104026020016040519081016040528092919081815260200182805461181890612e17565b80156118655780601f1061183a57610100808354040283529160200191611865565b820191906000526020600020905b81548152906001019060200180831161184857829003601f168201915b505050505081565b60085481565b600e60009054906101000a900460ff1681565b600260009054906101000a900460ff1681565b600047905090565b60075481565b60055481565b600b6020528060005260406000206000915090508060000160009054906101000a900473ffffffffffffffffffffffffffffffffffffffff1690806001016040518060400160405290816000820154815260200160018201805461191090612e17565b80601f016020809104026020016040519081016040528092919081815260200182805461193c90612e17565b80156119895780601f1061195e57610100808354040283529160200191611989565b820191906000526020600020905b81548152906001019060200180831161196c57829003601f168201915b5050505050815250509080600301604051806040016040529081600082015481526020016001820180546119bc90612e17565b80601f01602080910402602001604051908101604052809291908181526020018280546119e890612e17565b8015611a355780601f10611a0a57610100808354040283529160200191611a35565b820191906000526020600020905b815481529060010190602001808311611a1857829003601f168201915b505050505081525050908060050154908060060160009054906101000a900460ff16905085565b6060600060098054905067ffffffffffffffff811115611aa5577f4e487b7100000000000000000000000000000000000000000000000000000000600052604160045260246000fd5b604051908082528060200260200182016040528015611ade57816020015b611acb611fb6565b815260200190600190039081611ac35790505b50905060005b600980549050811015611dd157600b600060098381548110611b2f577f4e487b7100000000000000000000000000000000000000000000000000000000600052603260045260246000fd5b9060005260206000200160009054906101000a900473ffffffffffffffffffffffffffffffffffffffff1673ffffffffffffffffffffffffffffffffffffffff1673ffffffffffffffffffffffffffffffffffffffff1681526020019081526020016000206040518060a00160405290816000820160009054906101000a900473ffffffffffffffffffffffffffffffffffffffff1673ffffffffffffffffffffffffffffffffffffffff1673ffffffffffffffffffffffffffffffffffffffff1681526020016001820160405180604001604052908160008201548152602001600182018054611c1f90612e17565b80601f0160208091040260200160405190810160405280929190818152602001828054611c4b90612e17565b8015611c985780601f10611c6d57610100808354040283529160200191611c98565b820191906000526020600020905b815481529060010190602001808311611c7b57829003601f168201915b50505050508152505081526020016003820160405180604001604052908160008201548152602001600182018054611ccf90612e17565b80601f0160208091040260200160405190810160405280929190818152602001828054611cfb90612e17565b8015611d485780601f10611d1d57610100808354040283529160200191611d48565b820191906000526020600020905b815481529060010190602001808311611d2b57829003601f168201915b5050505050815250508152602001600582015481526020016006820160009054906101000a900460ff161515151581525050828281518110611db3577f4e487b7100000000000000000000000000000000000000000000000000000000600052603260045260246000fd5b60200260200101819052508080611dc990612e49565b915050611ae4565b508091505090565b60045481565b6000806000600e60009054906101000a900460ff16600260009054906101000a900460ff16600260019054906101000a900460ff16925092509250909192565b600a60009054906101000a900473ffffffffffffffffffffffffffffffffffffffff1681565b6000600260006101000a81548160ff021916908315150217905550565b6000600260016101000a81548160ff021916908315150217905550565b6001600260016101000a81548160ff021916908315150217905550565b600c5442611eaa9190612c9b565b600381905550565b6001600260006101000a81548160ff021916908315150217905550565b508054611edb90612e17565b6000825580601f10611eed5750611f0c565b601f016020900490600052602060002090810190611f0b9190612009565b5b50565b5080546000825590600052602060002090810190611f2d9190612009565b50565b828054611f3c90612e17565b90600052602060002090601f016020900481019282611f5e5760008555611fa5565b82601f10611f7757805160ff1916838001178555611fa5565b82800160010185558215611fa5579182015b82811115611fa4578251825591602001919060010190611f89565b5b509050611fb29190612009565b5090565b6040518060a00160405280600073ffffffffffffffffffffffffffffffffffffffff168152602001611fe6612026565b8152602001611ff3612026565b8152602001600081526020016000151581525090565b5b8082111561202257600081600090555060010161200a565b5090565b604051806040016040528060008152602001606081525090565b600061205361204e84612c05565b612bd4565b90508281526020810184848401111561206b57600080fd5b612076848285612dd5565b509392505050565b60008135905061208d81612fa2565b92915050565b600082601f8301126120a457600080fd5b81356120b4848260208601612040565b91505092915050565b6000813590506120cc81612fb9565b92915050565b6000602082840312156120e457600080fd5b60006120f28482850161207e565b91505092915050565b6000806040838503121561210e57600080fd5b600083013567ffffffffffffffff81111561212857600080fd5b61213485828601612093565b9250506020612145858286016120bd565b9150509250929050565b60006020828403121561216157600080fd5b600061216f848285016120bd565b91505092915050565b600061218483836127d1565b905092915050565b61219581612d68565b82525050565b6121a481612d68565b82525050565b6121b381612d56565b82525050565b60006121c482612c45565b6121ce8185612c68565b9350836020820285016121e085612c35565b8060005b8581101561221c57848403895281516121fd8582612178565b945061220883612c5b565b925060208a019950506001810190506121e4565b50829750879550505050505092915050565b61223781612d7a565b82525050565b61224681612d7a565b82525050565b61225581612dc3565b82525050565b600061226682612c50565b6122708185612c79565b9350612280818560208601612de4565b61228981612f7d565b840191505092915050565b600061229f82612c50565b6122a98185612c8a565b93506122b9818560208601612de4565b6122c281612f7d565b840191505092915050565b60006122da601983612c8a565b91507f596f75206d757374207375626d697420616e20616d6f756e74000000000000006000830152602082019050919050565b600061231a602183612c8a565b91507f5761697420756e74696c207468652066756e6473206172652072656c6561736560008301527f64000000000000000000000000000000000000000000000000000000000000006020830152604082019050919050565b6000612380601e83612c8a565b91507f596f7520616c7265616479206d61646520796f7572206465706f7369747300006000830152602082019050919050565b60006123c0602383612c8a565b91507f596f752063616e206f6e6c79207375626d697420796f7572206f776e2072657360008301527f756c7400000000000000000000000000000000000000000000000000000000006020830152604082019050919050565b6000612426602183612c8a565b91507f596f7520617265206e6f7420656c696769626c6520666f72207769746864726160008301527f77000000000000000000000000000000000000000000000000000000000000006020830152604082019050919050565b600061248c601f83612c8a565b91507f5468657265206973206e6f2066756e6473206c65667420746f20636c61696d006000830152602082019050919050565b60006124cc602583612c8a565b91507f596f75206861766520616c7265616479206d61646520796f757220776974686460008301527f726177616c0000000000000000000000000000000000000000000000000000006020830152604082019050919050565b6000612532601983612c8a565b91507f4e4f545f454c49474954424c455f544f5f5749544844524157000000000000006000830152602082019050919050565b6000612572601783612c8a565b91507f4e4f545f454c494749424c455f544f5f4445504f5349540000000000000000006000830152602082019050919050565b60006125b2602683612c8a565b91507f596f75206d757374207761697420666f72207468652061646d696e20746f206360008301527f6f6e6669726d00000000000000000000000000000000000000000000000000006020830152604082019050919050565b6000612618600a83612c8a565b91507f41444d494e5f4f4e4c59000000000000000000000000000000000000000000006000830152602082019050919050565b6000612658603383612c8a565b91507f596f75206d757374207761697420756e74696c2074686520647565206461746560008301527f20746f207375626d6974206120726573756c74000000000000000000000000006020830152604082019050919050565b60006126be603483612c8a565b91507f596f75206d757374207761697420756e74696c2074686520656e64206f66207460008301527f6865207375626d697373696f6e20706572696f640000000000000000000000006020830152604082019050919050565b6000612724601d83612c8a565b91507f5468652067616d6520686173206e6f74206576656e20737461727465640000006000830152602082019050919050565b600060408301600083015161276f600086018261284e565b5060208301518482036020860152612787828261225b565b9150508091505092915050565b60006040830160008301516127ac600086018261284e565b50602083015184820360208601526127c4828261225b565b9150508091505092915050565b600060a0830160008301516127e9600086018261218c565b50602083015184820360208601526128018282612757565b9150506040830151848203604086015261281b8282612757565b9150506060830151612830606086018261284e565b506080830151612843608086018261222e565b508091505092915050565b61285781612db9565b82525050565b61286681612db9565b82525050565b600060208201905061288160008301846121aa565b92915050565b600060a08201905061289c600083018861219b565b81810360208301526128ae8187612794565b905081810360408301526128c28186612794565b90506128d1606083018561285d565b6128de608083018461223d565b9695505050505050565b6000602082019050818103600083015261290281846121b9565b905092915050565b600060208201905061291f600083018461223d565b92915050565b600060208201905061293a600083018461224c565b92915050565b6000606082019050612955600083018661224c565b612962602083018561223d565b61296f604083018461223d565b949350505050565b600060208201905081810360008301526129918184612294565b905092915050565b600060208201905081810360008301526129b2816122cd565b9050919050565b600060208201905081810360008301526129d28161230d565b9050919050565b600060208201905081810360008301526129f281612373565b9050919050565b60006020820190508181036000830152612a12816123b3565b9050919050565b60006020820190508181036000830152612a3281612419565b9050919050565b60006020820190508181036000830152612a528161247f565b9050919050565b60006020820190508181036000830152612a72816124bf565b9050919050565b60006020820190508181036000830152612a9281612525565b9050919050565b60006020820190508181036000830152612ab281612565565b9050919050565b60006020820190508181036000830152612ad2816125a5565b9050919050565b60006020820190508181036000830152612af28161260b565b9050919050565b60006020820190508181036000830152612b128161264b565b9050919050565b60006020820190508181036000830152612b32816126b1565b9050919050565b60006020820190508181036000830152612b5281612717565b9050919050565b6000602082019050612b6e600083018461285d565b92915050565b6000604082019050612b89600083018561285d565b612b96602083018461285d565b9392505050565b6000606082019050612bb2600083018661285d565b612bbf602083018561285d565b612bcc604083018461285d565b949350505050565b6000604051905081810181811067ffffffffffffffff82111715612bfb57612bfa612f4e565b5b8060405250919050565b600067ffffffffffffffff821115612c2057612c1f612f4e565b5b601f19601f8301169050602081019050919050565b6000819050602082019050919050565b600081519050919050565b600081519050919050565b6000602082019050919050565b600082825260208201905092915050565b600082825260208201905092915050565b600082825260208201905092915050565b6000612ca682612db9565b9150612cb183612db9565b9250827fffffffffffffffffffffffffffffffffffffffffffffffffffffffffffffffff03821115612ce657612ce5612e92565b5b828201905092915050565b6000612cfc82612db9565b9150612d0783612db9565b925082612d1757612d16612ec1565b5b828204905092915050565b6000612d2d82612db9565b9150612d3883612db9565b925082821015612d4b57612d4a612e92565b5b828203905092915050565b6000612d6182612d99565b9050919050565b6000612d7382612d99565b9050919050565b60008115159050919050565b6000819050612d9482612f8e565b919050565b600073ffffffffffffffffffffffffffffffffffffffff82169050919050565b6000819050919050565b6000612dce82612d86565b9050919050565b82818337600083830152505050565b60005b83811015612e02578082015181840152602081019050612de7565b83811115612e11576000848401525b50505050565b60006002820490506001821680612e2f57607f821691505b60208210811415612e4357612e42612f1f565b5b50919050565b6000612e5482612db9565b91507fffffffffffffffffffffffffffffffffffffffffffffffffffffffffffffffff821415612e8757612e86612e92565b5b600182019050919050565b7f4e487b7100000000000000000000000000000000000000000000000000000000600052601160045260246000fd5b7f4e487b7100000000000000000000000000000000000000000000000000000000600052601260045260246000fd5b7f4e487b7100000000000000000000000000000000000000000000000000000000600052602160045260246000fd5b7f4e487b7100000000000000000000000000000000000000000000000000000000600052602260045260246000fd5b7f4e487b7100000000000000000000000000000000000000000000000000000000600052604160045260246000fd5b6000601f19601f8301169050919050565b60038110612f9f57612f9e612ef0565b5b50565b612fab81612d56565b8114612fb657600080fd5b50565b612fc281612db9565b8114612fcd57600080fd5b5056fea2646970667358221220cb8f6368dba2ff5fbc118153256df9f8f942ef96c6050468bce7f7592edf46bd64736f6c63430008000033",
  "linkReferences": {},
  "deployedLinkReferences": {}
}