{
  "_format": "hh-sol-artifact-1",
  "contractName": "DisasterDonate",
  "sourceName": "contracts/DisasterDonate.sol",
  "abi": [
    {
      "inputs": [],
      "stateMutability": "nonpayable",
      "type": "constructor"
    },
    {
      "inputs": [
        {
          "internalType": "uint256",
          "name": "disasterId",
          "type": "uint256"
        },
        {
          "internalType": "address",
          "name": "organization",
          "type": "address"
        }
      ],
      "name": "addOrganizationToDisaster",
      "outputs": [],
      "stateMutability": "nonpayable",
      "type": "function"
    },
    {
      "inputs": [],
      "name": "addToEmergencyReliefFund",
      "outputs": [],
      "stateMutability": "payable",
      "type": "function"
    },
    {
      "inputs": [
        {
          "internalType": "string",
          "name": "disasterName",
          "type": "string"
        },
        {
          "internalType": "string",
          "name": "severity",
          "type": "string"
        },
        {
          "internalType": "string",
          "name": "disasterType",
          "type": "string"
        },
        {
          "internalType": "string",
          "name": "description",
          "type": "string"
        },
        {
          "internalType": "string",
          "name": "affectedAreas",
          "type": "string"
        },
        {
          "internalType": "uint256",
          "name": "affectedPeopleCount",
          "type": "uint256"
        },
        {
          "internalType": "uint256",
          "name": "targetCollectionAmount",
          "type": "uint256"
        },
        {
          "internalType": "address[]",
          "name": "reliefOrganizations",
          "type": "address[]"
        }
      ],
      "name": "createDisaster",
      "outputs": [
        {
          "internalType": "uint256",
          "name": "id",
          "type": "uint256"
        }
      ],
      "stateMutability": "nonpayable",
      "type": "function"
    },
    {
      "inputs": [
        {
          "internalType": "string",
          "name": "name",
          "type": "string"
        },
        {
          "internalType": "address",
          "name": "organization",
          "type": "address"
        }
      ],
      "name": "createOrganization",
      "outputs": [],
      "stateMutability": "nonpayable",
      "type": "function"
    },
    {
      "inputs": [
        {
          "internalType": "uint256",
          "name": "disasterID",
          "type": "uint256"
        }
      ],
      "name": "deleteDisaster",
      "outputs": [],
      "stateMutability": "nonpayable",
      "type": "function"
    },
    {
      "inputs": [
        {
          "internalType": "uint256",
          "name": "",
          "type": "uint256"
        }
      ],
      "name": "disasters",
      "outputs": [
        {
          "internalType": "string",
          "name": "disasterName",
          "type": "string"
        },
        {
          "internalType": "string",
          "name": "severity",
          "type": "string"
        },
        {
          "internalType": "string",
          "name": "disasterType",
          "type": "string"
        },
        {
          "internalType": "string",
          "name": "description",
          "type": "string"
        },
        {
          "internalType": "string",
          "name": "affectedAreas",
          "type": "string"
        },
        {
          "internalType": "uint256",
          "name": "affectedPeopleCount",
          "type": "uint256"
        },
        {
          "internalType": "uint256",
          "name": "targetCollectionAmount",
          "type": "uint256"
        },
        {
          "internalType": "uint256",
          "name": "totalCollectedAmount",
          "type": "uint256"
        }
      ],
      "stateMutability": "view",
      "type": "function"
    },
    {
      "inputs": [
        {
          "internalType": "uint256",
          "name": "disasterId",
          "type": "uint256"
        },
        {
          "internalType": "address",
          "name": "organization",
          "type": "address"
        },
        {
          "internalType": "string",
          "name": "donorName",
          "type": "string"
        }
      ],
      "name": "donate",
      "outputs": [],
      "stateMutability": "payable",
      "type": "function"
    },
    {
      "inputs": [],
      "name": "getAllDisasterData",
      "outputs": [
        {
          "components": [
            {
              "internalType": "string",
              "name": "disasterName",
              "type": "string"
            },
            {
              "internalType": "string",
              "name": "severity",
              "type": "string"
            },
            {
              "internalType": "string",
              "name": "disasterType",
              "type": "string"
            },
            {
              "internalType": "string",
              "name": "description",
              "type": "string"
            },
            {
              "internalType": "string",
              "name": "affectedAreas",
              "type": "string"
            },
            {
              "internalType": "uint256",
              "name": "affectedPeopleCount",
              "type": "uint256"
            },
            {
              "internalType": "uint256",
              "name": "targetCollectionAmount",
              "type": "uint256"
            },
            {
              "internalType": "uint256",
              "name": "totalCollectedAmount",
              "type": "uint256"
            },
            {
              "internalType": "address[]",
              "name": "reliefOrganizations",
              "type": "address[]"
            }
          ],
          "internalType": "struct DisasterDonate.DisasterView[]",
          "name": "",
          "type": "tuple[]"
        }
      ],
      "stateMutability": "view",
      "type": "function"
    },
    {
      "inputs": [
        {
          "internalType": "uint256",
          "name": "disasterId",
          "type": "uint256"
        }
      ],
      "name": "getDisaster",
      "outputs": [
        {
          "components": [
            {
              "internalType": "string",
              "name": "disasterName",
              "type": "string"
            },
            {
              "internalType": "string",
              "name": "severity",
              "type": "string"
            },
            {
              "internalType": "string",
              "name": "disasterType",
              "type": "string"
            },
            {
              "internalType": "string",
              "name": "description",
              "type": "string"
            },
            {
              "internalType": "string",
              "name": "affectedAreas",
              "type": "string"
            },
            {
              "internalType": "uint256",
              "name": "affectedPeopleCount",
              "type": "uint256"
            },
            {
              "internalType": "uint256",
              "name": "targetCollectionAmount",
              "type": "uint256"
            },
            {
              "internalType": "uint256",
              "name": "totalCollectedAmount",
              "type": "uint256"
            },
            {
              "internalType": "address[]",
              "name": "reliefOrganizations",
              "type": "address[]"
            }
          ],
          "internalType": "struct DisasterDonate.DisasterView",
          "name": "disasterData",
          "type": "tuple"
        }
      ],
      "stateMutability": "view",
      "type": "function"
    },
    {
      "inputs": [
        {
          "internalType": "address",
          "name": "donor",
          "type": "address"
        }
      ],
      "name": "getDonorName",
      "outputs": [
        {
          "internalType": "string",
          "name": "",
          "type": "string"
        }
      ],
      "stateMutability": "view",
      "type": "function"
    },
    {
      "inputs": [],
      "name": "getEmergencyReliefFund",
      "outputs": [
        {
          "internalType": "uint256",
          "name": "",
          "type": "uint256"
        }
      ],
      "stateMutability": "view",
      "type": "function"
    },
    {
      "inputs": [
        {
          "internalType": "address",
          "name": "organization",
          "type": "address"
        }
      ],
      "name": "getOrganization",
      "outputs": [
        {
          "internalType": "string",
          "name": "name",
          "type": "string"
        },
        {
          "internalType": "uint256",
          "name": "totalDonations",
          "type": "uint256"
        }
      ],
      "stateMutability": "view",
      "type": "function"
    },
    {
      "inputs": [
        {
          "internalType": "address",
          "name": "organization",
          "type": "address"
        }
      ],
      "name": "getOrganizationTotalDonations",
      "outputs": [
        {
          "internalType": "uint256",
          "name": "",
          "type": "uint256"
        }
      ],
      "stateMutability": "view",
      "type": "function"
    },
    {
      "inputs": [
        {
          "internalType": "address",
          "name": "",
          "type": "address"
        }
      ],
      "name": "organizations",
      "outputs": [
        {
          "internalType": "string",
          "name": "name",
          "type": "string"
        },
        {
          "internalType": "uint256",
          "name": "totalDonations",
          "type": "uint256"
        }
      ],
      "stateMutability": "view",
      "type": "function"
    },
    {
      "inputs": [],
      "name": "owner",
      "outputs": [
        {
          "internalType": "address payable",
          "name": "",
          "type": "address"
        }
      ],
      "stateMutability": "view",
      "type": "function"
    },
    {
      "inputs": [
        {
          "internalType": "address",
          "name": "",
          "type": "address"
        }
      ],
      "name": "users",
      "outputs": [
        {
          "internalType": "string",
          "name": "username",
          "type": "string"
        }
      ],
      "stateMutability": "view",
      "type": "function"
    },
    {
      "inputs": [],
      "name": "withdraw",
      "outputs": [],
      "stateMutability": "nonpayable",
      "type": "function"
    }
  ],
  "bytecode": "0x60806040526000600455600060055534801561001a57600080fd5b5033600360006101000a81548173ffffffffffffffffffffffffffffffffffffffff021916908373ffffffffffffffffffffffffffffffffffffffff160217905550612e6f8061006b6000396000f3fe6080604052600436106100fe5760003560e01c806369cbf44f11610095578063a87430ba11610064578063a87430ba14610354578063b3292dce14610391578063c185599d146103bc578063d2c30a6d146103c6578063f651ddf414610404576100fe565b806369cbf44f146102a75780636e6d5e59146102d05780638da5cb5b146102ec5780639bbebd7514610317576100fe565b80633cdb0d09116100d15780633cdb0d09146101bd57806344ff2f1f146102015780635a1f74061461023e57806364b791c71461027c576100fe565b80630cf4bbfd1461010357806334aa4d7d146101405780633527c108146101695780633ccfd60b146101a6575b600080fd5b34801561010f57600080fd5b5061012a60048036038101906101259190611f9f565b61042d565b604051610137919061287c565b60405180910390f35b34801561014c57600080fd5b5061016760048036038101906101629190612187565b610501565b005b34801561017557600080fd5b50610190600480360381019061018b9190611f9f565b610763565b60405161019d9190612a91565b60405180910390f35b3480156101b257600080fd5b506101bb6107af565b005b3480156101c957600080fd5b506101e460048036038101906101df919061215e565b6108aa565b6040516101f898979695949392919061289e565b60405180910390f35b34801561020d57600080fd5b506102286004803603810190610223919061201c565b610b9a565b6040516102359190612a91565b60405180910390f35b34801561024a57600080fd5b5061026560048036038101906102609190611f9f565b610e1a565b60405161027392919061293f565b60405180910390f35b34801561028857600080fd5b50610291610ec6565b60405161029e9190612a91565b60405180910390f35b3480156102b357600080fd5b506102ce60048036038101906102c99190611fc8565b610ed0565b005b6102ea60048036038101906102e591906121c3565b610fbb565b005b3480156102f857600080fd5b5061030161115f565b60405161030e919061283f565b60405180910390f35b34801561032357600080fd5b5061033e6004803603810190610339919061215e565b611185565b60405161034b9190612a6f565b60405180910390f35b34801561036057600080fd5b5061037b60048036038101906103769190611f9f565b61154e565b604051610388919061287c565b60405180910390f35b34801561039d57600080fd5b506103a66115f4565b6040516103b3919061285a565b60405180910390f35b6103c4611a89565b005b3480156103d257600080fd5b506103ed60048036038101906103e89190611f9f565b611ae7565b6040516103fb92919061293f565b60405180910390f35b34801561041057600080fd5b5061042b6004803603810190610426919061215e565b611bc9565b005b6060600260008373ffffffffffffffffffffffffffffffffffffffff1673ffffffffffffffffffffffffffffffffffffffff168152602001908152602001600020600001805461047c90612cf2565b80601f01602080910402602001604051908101604052809291908181526020018280546104a890612cf2565b80156104f55780601f106104ca576101008083540402835291602001916104f5565b820191906000526020600020905b8154815290600101906020018083116104d857829003601f168201915b50505050509050919050565b6004548210610545576040517f08c379a000000000000000000000000000000000000000000000000000000000815260040161053c90612a2f565b60405180910390fd5b6000600160008373ffffffffffffffffffffffffffffffffffffffff1673ffffffffffffffffffffffffffffffffffffffff168152602001908152602001600020600001805461059490612cf2565b905014156105d7576040517f08c379a00000000000000000000000000000000000000000000000000000000081526004016105ce906129ef565b60405180910390fd5b600080600084815260200190815260200160002090506000805b82600801805490508110156106b6578373ffffffffffffffffffffffffffffffffffffffff16836008018281548110610653577f4e487b7100000000000000000000000000000000000000000000000000000000600052603260045260246000fd5b9060005260206000200160009054906101000a900473ffffffffffffffffffffffffffffffffffffffff1673ffffffffffffffffffffffffffffffffffffffff1614156106a357600191506106b6565b80806106ae90612d24565b9150506105f1565b5080156106f8576040517f08c379a00000000000000000000000000000000000000000000000000000000081526004016106ef906129cf565b60405180910390fd5b81600801839080600181540180825580915050600190039060005260206000200160009091909190916101000a81548173ffffffffffffffffffffffffffffffffffffffff021916908373ffffffffffffffffffffffffffffffffffffffff16021790555050505050565b6000600160008373ffffffffffffffffffffffffffffffffffffffff1673ffffffffffffffffffffffffffffffffffffffff168152602001908152602001600020600101549050919050565b600360009054906101000a900473ffffffffffffffffffffffffffffffffffffffff1673ffffffffffffffffffffffffffffffffffffffff163373ffffffffffffffffffffffffffffffffffffffff161461083f576040517f08c379a0000000000000000000000000000000000000000000000000000000008152600401610836906129af565b60405180910390fd5b600360009054906101000a900473ffffffffffffffffffffffffffffffffffffffff1673ffffffffffffffffffffffffffffffffffffffff166108fc479081150290604051600060405180830381858888f193505050501580156108a7573d6000803e3d6000fd5b50565b60006020528060005260406000206000915090508060000180546108cd90612cf2565b80601f01602080910402602001604051908101604052809291908181526020018280546108f990612cf2565b80156109465780601f1061091b57610100808354040283529160200191610946565b820191906000526020600020905b81548152906001019060200180831161092957829003601f168201915b50505050509080600101805461095b90612cf2565b80601f016020809104026020016040519081016040528092919081815260200182805461098790612cf2565b80156109d45780601f106109a9576101008083540402835291602001916109d4565b820191906000526020600020905b8154815290600101906020018083116109b757829003601f168201915b5050505050908060020180546109e990612cf2565b80601f0160208091040260200160405190810160405280929190818152602001828054610a1590612cf2565b8015610a625780601f10610a3757610100808354040283529160200191610a62565b820191906000526020600020905b815481529060010190602001808311610a4557829003601f168201915b505050505090806003018054610a7790612cf2565b80601f0160208091040260200160405190810160405280929190818152602001828054610aa390612cf2565b8015610af05780601f10610ac557610100808354040283529160200191610af0565b820191906000526020600020905b815481529060010190602001808311610ad357829003601f168201915b505050505090806004018054610b0590612cf2565b80601f0160208091040260200160405190810160405280929190818152602001828054610b3190612cf2565b8015610b7e5780601f10610b5357610100808354040283529160200191610b7e565b820191906000526020600020905b815481529060010190602001808311610b6157829003601f168201915b5050505050908060050154908060060154908060070154905088565b6000600360009054906101000a900473ffffffffffffffffffffffffffffffffffffffff1673ffffffffffffffffffffffffffffffffffffffff163373ffffffffffffffffffffffffffffffffffffffff1614610c2c576040517f08c379a0000000000000000000000000000000000000000000000000000000008152600401610c2390612a4f565b60405180910390fd5b60005b8251811015610d1d57600060016000858481518110610c77577f4e487b7100000000000000000000000000000000000000000000000000000000600052603260045260246000fd5b602002602001015173ffffffffffffffffffffffffffffffffffffffff1673ffffffffffffffffffffffffffffffffffffffff1681526020019081526020016000206000018054610cc790612cf2565b90501415610d0a576040517f08c379a0000000000000000000000000000000000000000000000000000000008152600401610d01906129ef565b60405180910390fd5b8080610d1590612d24565b915050610c2f565b50600080600060046000815480929190610d3690612d24565b919050558152602001908152602001600020905089816000019080519060200190610d62929190611c9d565b5088816001019080519060200190610d7b929190611c9d565b5087816002019080519060200190610d94929190611c9d565b5086816003019080519060200190610dad929190611c9d565b5085816004019080519060200190610dc6929190611c9d565b508481600501819055508381600601819055506000816007018190555082816008019080519060200190610dfb929190611d23565b506001600454610e0b9190612c2e565b91505098975050505050505050565b6001602052806000526040600020600091509050806000018054610e3d90612cf2565b80601f0160208091040260200160405190810160405280929190818152602001828054610e6990612cf2565b8015610eb65780601f10610e8b57610100808354040283529160200191610eb6565b820191906000526020600020905b815481529060010190602001808311610e9957829003601f168201915b5050505050908060010154905082565b6000600554905090565b600360009054906101000a900473ffffffffffffffffffffffffffffffffffffffff1673ffffffffffffffffffffffffffffffffffffffff163373ffffffffffffffffffffffffffffffffffffffff1614610f60576040517f08c379a0000000000000000000000000000000000000000000000000000000008152600401610f5790612a0f565b60405180910390fd5b81600160008373ffffffffffffffffffffffffffffffffffffffff1673ffffffffffffffffffffffffffffffffffffffff1681526020019081526020016000206000019080519060200190610fb6929190611c9d565b505050565b60003411610ffe576040517f08c379a0000000000000000000000000000000000000000000000000000000008152600401610ff59061298f565b60405180910390fd5b3460008085815260200190815260200160002060090160008473ffffffffffffffffffffffffffffffffffffffff1673ffffffffffffffffffffffffffffffffffffffff16815260200190815260200160002060008282546110609190612bd8565b9250508190555034600160008473ffffffffffffffffffffffffffffffffffffffff1673ffffffffffffffffffffffffffffffffffffffff16815260200190815260200160002060010160008282546110b99190612bd8565b925050819055503460008085815260200190815260200160002060070160008282546110e59190612bd8565b92505081905550604051806020016040528082815250600260003373ffffffffffffffffffffffffffffffffffffffff1673ffffffffffffffffffffffffffffffffffffffff1681526020019081526020016000206000820151816000019080519060200190611156929190611c9d565b50905050505050565b600360009054906101000a900473ffffffffffffffffffffffffffffffffffffffff1681565b61118d611dad565b600080600084815260200190815260200160002090508060000180546111b290612cf2565b80601f01602080910402602001604051908101604052809291908181526020018280546111de90612cf2565b801561122b5780601f106112005761010080835404028352916020019161122b565b820191906000526020600020905b81548152906001019060200180831161120e57829003601f168201915b5050505050826000018190525080600101805461124790612cf2565b80601f016020809104026020016040519081016040528092919081815260200182805461127390612cf2565b80156112c05780601f10611295576101008083540402835291602001916112c0565b820191906000526020600020905b8154815290600101906020018083116112a357829003601f168201915b505050505082602001819052508060020180546112dc90612cf2565b80601f016020809104026020016040519081016040528092919081815260200182805461130890612cf2565b80156113555780601f1061132a57610100808354040283529160200191611355565b820191906000526020600020905b81548152906001019060200180831161133857829003601f168201915b5050505050826040018190525080600301805461137190612cf2565b80601f016020809104026020016040519081016040528092919081815260200182805461139d90612cf2565b80156113ea5780601f106113bf576101008083540402835291602001916113ea565b820191906000526020600020905b8154815290600101906020018083116113cd57829003601f168201915b5050505050826060018190525080600401805461140690612cf2565b80601f016020809104026020016040519081016040528092919081815260200182805461143290612cf2565b801561147f5780601f106114545761010080835404028352916020019161147f565b820191906000526020600020905b81548152906001019060200180831161146257829003601f168201915b5050505050826080018190525080600501548260a001818152505080600601548260c001818152505080600701548260e00181815250508060080180548060200260200160405190810160405280929190818152602001828054801561153a57602002820191906000526020600020905b8160009054906101000a900473ffffffffffffffffffffffffffffffffffffffff1673ffffffffffffffffffffffffffffffffffffffff16815260200190600101908083116114f0575b505050505082610100018190525050919050565b600260205280600052604060002060009150905080600001805461157190612cf2565b80601f016020809104026020016040519081016040528092919081815260200182805461159d90612cf2565b80156115ea5780601f106115bf576101008083540402835291602001916115ea565b820191906000526020600020905b8154815290600101906020018083116115cd57829003601f168201915b5050505050905081565b6060600060045467ffffffffffffffff81111561163a577f4e487b7100000000000000000000000000000000000000000000000000000000600052604160045260246000fd5b60405190808252806020026020018201604052801561167357816020015b611660611dad565b8152602001906001900390816116585790505b50905060005b600454811015611a8157600080600083815260200190815260200160002090506040518061012001604052808260000180546116b490612cf2565b80601f01602080910402602001604051908101604052809291908181526020018280546116e090612cf2565b801561172d5780601f106117025761010080835404028352916020019161172d565b820191906000526020600020905b81548152906001019060200180831161171057829003601f168201915b5050505050815260200182600101805461174690612cf2565b80601f016020809104026020016040519081016040528092919081815260200182805461177290612cf2565b80156117bf5780601f10611794576101008083540402835291602001916117bf565b820191906000526020600020905b8154815290600101906020018083116117a257829003601f168201915b505050505081526020018260020180546117d890612cf2565b80601f016020809104026020016040519081016040528092919081815260200182805461180490612cf2565b80156118515780601f1061182657610100808354040283529160200191611851565b820191906000526020600020905b81548152906001019060200180831161183457829003601f168201915b5050505050815260200182600301805461186a90612cf2565b80601f016020809104026020016040519081016040528092919081815260200182805461189690612cf2565b80156118e35780601f106118b8576101008083540402835291602001916118e3565b820191906000526020600020905b8154815290600101906020018083116118c657829003601f168201915b505050505081526020018260040180546118fc90612cf2565b80601f016020809104026020016040519081016040528092919081815260200182805461192890612cf2565b80156119755780601f1061194a57610100808354040283529160200191611975565b820191906000526020600020905b81548152906001019060200180831161195857829003601f168201915b5050505050815260200182600501548152602001826006015481526020018260070154815260200182600801805480602002602001604051908101604052809291908181526020018280548015611a2157602002820191906000526020600020905b8160009054906101000a900473ffffffffffffffffffffffffffffffffffffffff1673ffffffffffffffffffffffffffffffffffffffff16815260200190600101908083116119d7575b5050505050815250838381518110611a62577f4e487b7100000000000000000000000000000000000000000000000000000000600052603260045260246000fd5b6020026020010181905250508080611a7990612d24565b915050611679565b508091505090565b60003411611acc576040517f08c379a0000000000000000000000000000000000000000000000000000000008152600401611ac39061298f565b60405180910390fd5b3460056000828254611ade9190612bd8565b92505081905550565b6060600080600160008573ffffffffffffffffffffffffffffffffffffffff1673ffffffffffffffffffffffffffffffffffffffff1681526020019081526020016000209050806000018054611b3c90612cf2565b80601f0160208091040260200160405190810160405280929190818152602001828054611b6890612cf2565b8015611bb55780601f10611b8a57610100808354040283529160200191611bb5565b820191906000526020600020905b815481529060010190602001808311611b9857829003601f168201915b505050505092508060010154915050915091565b6004548110611c0d576040517f08c379a0000000000000000000000000000000000000000000000000000000008152600401611c049061296f565b60405180910390fd5b60008082815260200190815260200160002060008082016000611c309190611df9565b600182016000611c409190611df9565b600282016000611c509190611df9565b600382016000611c609190611df9565b600482016000611c709190611df9565b600582016000905560068201600090556007820160009055600882016000611c989190611e39565b505050565b828054611ca990612cf2565b90600052602060002090601f016020900481019282611ccb5760008555611d12565b82601f10611ce457805160ff1916838001178555611d12565b82800160010185558215611d12579182015b82811115611d11578251825591602001919060010190611cf6565b5b509050611d1f9190611e5a565b5090565b828054828255906000526020600020908101928215611d9c579160200282015b82811115611d9b5782518260006101000a81548173ffffffffffffffffffffffffffffffffffffffff021916908373ffffffffffffffffffffffffffffffffffffffff16021790555091602001919060010190611d43565b5b509050611da99190611e5a565b5090565b6040518061012001604052806060815260200160608152602001606081526020016060815260200160608152602001600081526020016000815260200160008152602001606081525090565b508054611e0590612cf2565b6000825580601f10611e175750611e36565b601f016020900490600052602060002090810190611e359190611e5a565b5b50565b5080546000825590600052602060002090810190611e579190611e5a565b50565b5b80821115611e73576000816000905550600101611e5b565b5090565b6000611e8a611e8584612add565b612aac565b90508083825260208201905082856020860282011115611ea957600080fd5b60005b85811015611ed95781611ebf8882611f21565b845260208401935060208301925050600181019050611eac565b5050509392505050565b6000611ef6611ef184612b09565b612aac565b905082815260208101848484011115611f0e57600080fd5b611f19848285612cb0565b509392505050565b600081359050611f3081612e0b565b92915050565b600082601f830112611f4757600080fd5b8135611f57848260208601611e77565b91505092915050565b600082601f830112611f7157600080fd5b8135611f81848260208601611ee3565b91505092915050565b600081359050611f9981612e22565b92915050565b600060208284031215611fb157600080fd5b6000611fbf84828501611f21565b91505092915050565b60008060408385031215611fdb57600080fd5b600083013567ffffffffffffffff811115611ff557600080fd5b61200185828601611f60565b925050602061201285828601611f21565b9150509250929050565b600080600080600080600080610100898b03121561203957600080fd5b600089013567ffffffffffffffff81111561205357600080fd5b61205f8b828c01611f60565b985050602089013567ffffffffffffffff81111561207c57600080fd5b6120888b828c01611f60565b975050604089013567ffffffffffffffff8111156120a557600080fd5b6120b18b828c01611f60565b965050606089013567ffffffffffffffff8111156120ce57600080fd5b6120da8b828c01611f60565b955050608089013567ffffffffffffffff8111156120f757600080fd5b6121038b828c01611f60565b94505060a06121148b828c01611f8a565b93505060c06121258b828c01611f8a565b92505060e089013567ffffffffffffffff81111561214257600080fd5b61214e8b828c01611f36565b9150509295985092959890939650565b60006020828403121561217057600080fd5b600061217e84828501611f8a565b91505092915050565b6000806040838503121561219a57600080fd5b60006121a885828601611f8a565b92505060206121b985828601611f21565b9150509250929050565b6000806000606084860312156121d857600080fd5b60006121e686828701611f8a565b93505060206121f786828701611f21565b925050604084013567ffffffffffffffff81111561221457600080fd5b61222086828701611f60565b9150509250925092565b60006122368383612265565b60208301905092915050565b600061224e8383612651565b905092915050565b61225f81612c74565b82525050565b61226e81612c62565b82525050565b600061227f82612b59565b6122898185612b94565b935061229483612b39565b8060005b838110156122c55781516122ac888261222a565b97506122b783612b7a565b925050600181019050612298565b5085935050505092915050565b60006122dd82612b64565b6122e78185612ba5565b9350836020820285016122f985612b49565b8060005b8581101561233557848403895281516123168582612242565b945061232183612b87565b925060208a019950506001810190506122fd565b50829750879550505050505092915050565b600061235282612b6f565b61235c8185612bb6565b935061236c818560208601612cbf565b61237581612dfa565b840191505092915050565b600061238b82612b6f565b6123958185612bc7565b93506123a5818560208601612cbf565b6123ae81612dfa565b840191505092915050565b60006123c6601783612bc7565b91507f6469736173746572494420697320696e636f72726563740000000000000000006000830152602082019050919050565b6000612406602683612bc7565b91507f446f6e6174696f6e20616d6f756e74206d75737420626520677265617465722060008301527f7468616e203000000000000000000000000000000000000000000000000000006020830152604082019050919050565b600061246c601d83612bc7565b91507f4f6e6c79206f776e65722063616e2077697468647261772066756e64730000006000830152602082019050919050565b60006124ac602683612bc7565b91507f4f7267616e697a6174696f6e20616c726561647920616464656420746f20646960008301527f73617374657200000000000000000000000000000000000000000000000000006020830152604082019050919050565b6000612512602283612bc7565b91507f52656c696566206f7267616e697a6174696f6e20646f6573206e6f742065786960008301527f73740000000000000000000000000000000000000000000000000000000000006020830152604082019050919050565b6000612578602283612bc7565b91507f4f6e6c79206f776e65722063616e20637265617465206f7267616e697a61746960008301527f6f6e0000000000000000000000000000000000000000000000000000000000006020830152604082019050919050565b60006125de601383612bc7565b91507f496e76616c6964206469736173746572206964000000000000000000000000006000830152602082019050919050565b600061261e601e83612bc7565b91507f4f6e6c79206f776e65722063616e2063726561746520646973617374657200006000830152602082019050919050565b600061012083016000830151848203600086015261266f8282612347565b915050602083015184820360208601526126898282612347565b915050604083015184820360408601526126a38282612347565b915050606083015184820360608601526126bd8282612347565b915050608083015184820360808601526126d78282612347565b91505060a08301516126ec60a0860182612821565b5060c08301516126ff60c0860182612821565b5060e083015161271260e0860182612821565b5061010083015184820361010086015261272c8282612274565b9150508091505092915050565b60006101208301600083015184820360008601526127578282612347565b915050602083015184820360208601526127718282612347565b9150506040830151848203604086015261278b8282612347565b915050606083015184820360608601526127a58282612347565b915050608083015184820360808601526127bf8282612347565b91505060a08301516127d460a0860182612821565b5060c08301516127e760c0860182612821565b5060e08301516127fa60e0860182612821565b506101008301518482036101008601526128148282612274565b9150508091505092915050565b61282a81612ca6565b82525050565b61283981612ca6565b82525050565b60006020820190506128546000830184612256565b92915050565b6000602082019050818103600083015261287481846122d2565b905092915050565b600060208201905081810360008301526128968184612380565b905092915050565b60006101008201905081810360008301526128b9818b612380565b905081810360208301526128cd818a612380565b905081810360408301526128e18189612380565b905081810360608301526128f58188612380565b905081810360808301526129098187612380565b905061291860a0830186612830565b61292560c0830185612830565b61293260e0830184612830565b9998505050505050505050565b600060408201905081810360008301526129598185612380565b90506129686020830184612830565b9392505050565b60006020820190508181036000830152612988816123b9565b9050919050565b600060208201905081810360008301526129a8816123f9565b9050919050565b600060208201905081810360008301526129c88161245f565b9050919050565b600060208201905081810360008301526129e88161249f565b9050919050565b60006020820190508181036000830152612a0881612505565b9050919050565b60006020820190508181036000830152612a288161256b565b9050919050565b60006020820190508181036000830152612a48816125d1565b9050919050565b60006020820190508181036000830152612a6881612611565b9050919050565b60006020820190508181036000830152612a898184612739565b905092915050565b6000602082019050612aa66000830184612830565b92915050565b6000604051905081810181811067ffffffffffffffff82111715612ad357612ad2612dcb565b5b8060405250919050565b600067ffffffffffffffff821115612af857612af7612dcb565b5b602082029050602081019050919050565b600067ffffffffffffffff821115612b2457612b23612dcb565b5b601f19601f8301169050602081019050919050565b6000819050602082019050919050565b6000819050602082019050919050565b600081519050919050565b600081519050919050565b600081519050919050565b6000602082019050919050565b6000602082019050919050565b600082825260208201905092915050565b600082825260208201905092915050565b600082825260208201905092915050565b600082825260208201905092915050565b6000612be382612ca6565b9150612bee83612ca6565b9250827fffffffffffffffffffffffffffffffffffffffffffffffffffffffffffffffff03821115612c2357612c22612d6d565b5b828201905092915050565b6000612c3982612ca6565b9150612c4483612ca6565b925082821015612c5757612c56612d6d565b5b828203905092915050565b6000612c6d82612c86565b9050919050565b6000612c7f82612c86565b9050919050565b600073ffffffffffffffffffffffffffffffffffffffff82169050919050565b6000819050919050565b82818337600083830152505050565b60005b83811015612cdd578082015181840152602081019050612cc2565b83811115612cec576000848401525b50505050565b60006002820490506001821680612d0a57607f821691505b60208210811415612d1e57612d1d612d9c565b5b50919050565b6000612d2f82612ca6565b91507fffffffffffffffffffffffffffffffffffffffffffffffffffffffffffffffff821415612d6257612d61612d6d565b5b600182019050919050565b7f4e487b7100000000000000000000000000000000000000000000000000000000600052601160045260246000fd5b7f4e487b7100000000000000000000000000000000000000000000000000000000600052602260045260246000fd5b7f4e487b7100000000000000000000000000000000000000000000000000000000600052604160045260246000fd5b6000601f19601f8301169050919050565b612e1481612c62565b8114612e1f57600080fd5b50565b612e2b81612ca6565b8114612e3657600080fd5b5056fea264697066735822122093872b399ae513b3a761890e348d51ff3336b0a5e85923afe398f0c9f54f9d2c64736f6c63430008000033",
  "linkReferences": {},
  "deployedLinkReferences": {}
}