{
  "_format": "hh-sol-artifact-1",
  "contractName": "DisasterDonate",
  "sourceName": "contracts/DisasterDonate.sol",
  "abi": [
    {
      "inputs": [],
      "stateMutability": "nonpayable",
      "type": "constructor"
    },
    {
      "inputs": [
        {
          "internalType": "uint256",
          "name": "disasterId",
          "type": "uint256"
        },
        {
          "internalType": "address",
          "name": "organization",
          "type": "address"
        }
      ],
      "name": "addOrganizationToDisaster",
      "outputs": [],
      "stateMutability": "nonpayable",
      "type": "function"
    },
    {
      "inputs": [
        {
          "internalType": "string",
          "name": "severity",
          "type": "string"
        },
        {
          "internalType": "string",
          "name": "disasterType",
          "type": "string"
        },
        {
          "internalType": "string",
          "name": "description",
          "type": "string"
        },
        {
          "internalType": "string",
          "name": "affectedAreas",
          "type": "string"
        },
        {
          "internalType": "uint256",
          "name": "affectedPeopleCount",
          "type": "uint256"
        },
        {
          "internalType": "uint256",
          "name": "targetCollectionAmount",
          "type": "uint256"
        },
        {
          "internalType": "address[]",
          "name": "reliefOrganizations",
          "type": "address[]"
        }
      ],
      "name": "createDisaster",
      "outputs": [
        {
          "internalType": "uint256",
          "name": "id",
          "type": "uint256"
        }
      ],
      "stateMutability": "nonpayable",
      "type": "function"
    },
    {
      "inputs": [
        {
          "internalType": "string",
          "name": "name",
          "type": "string"
        },
        {
          "internalType": "address",
          "name": "organization",
          "type": "address"
        }
      ],
      "name": "createOrganization",
      "outputs": [],
      "stateMutability": "nonpayable",
      "type": "function"
    },
    {
      "inputs": [
        {
          "internalType": "uint256",
          "name": "",
          "type": "uint256"
        }
      ],
      "name": "disasters",
      "outputs": [
        {
          "internalType": "string",
          "name": "severity",
          "type": "string"
        },
        {
          "internalType": "string",
          "name": "disasterType",
          "type": "string"
        },
        {
          "internalType": "string",
          "name": "description",
          "type": "string"
        },
        {
          "internalType": "string",
          "name": "affectedAreas",
          "type": "string"
        },
        {
          "internalType": "uint256",
          "name": "affectedPeopleCount",
          "type": "uint256"
        },
        {
          "internalType": "uint256",
          "name": "targetCollectionAmount",
          "type": "uint256"
        },
        {
          "internalType": "uint256",
          "name": "totalCollectedAmount",
          "type": "uint256"
        }
      ],
      "stateMutability": "view",
      "type": "function"
    },
    {
      "inputs": [
        {
          "internalType": "uint256",
          "name": "disasterId",
          "type": "uint256"
        },
        {
          "internalType": "address",
          "name": "organization",
          "type": "address"
        }
      ],
      "name": "donate",
      "outputs": [],
      "stateMutability": "payable",
      "type": "function"
    },
    {
      "inputs": [],
      "name": "getAllDisasterData",
      "outputs": [
        {
          "components": [
            {
              "internalType": "string",
              "name": "severity",
              "type": "string"
            },
            {
              "internalType": "string",
              "name": "disasterType",
              "type": "string"
            },
            {
              "internalType": "string",
              "name": "description",
              "type": "string"
            },
            {
              "internalType": "string",
              "name": "affectedAreas",
              "type": "string"
            },
            {
              "internalType": "uint256",
              "name": "affectedPeopleCount",
              "type": "uint256"
            },
            {
              "internalType": "uint256",
              "name": "targetCollectionAmount",
              "type": "uint256"
            },
            {
              "internalType": "uint256",
              "name": "totalCollectedAmount",
              "type": "uint256"
            },
            {
              "internalType": "address[]",
              "name": "reliefOrganizations",
              "type": "address[]"
            }
          ],
          "internalType": "struct DisasterDonate.DisasterView[]",
          "name": "",
          "type": "tuple[]"
        }
      ],
      "stateMutability": "view",
      "type": "function"
    },
    {
      "inputs": [
        {
          "internalType": "uint256",
          "name": "disasterId",
          "type": "uint256"
        }
      ],
      "name": "getDisaster",
      "outputs": [
        {
          "components": [
            {
              "internalType": "string",
              "name": "severity",
              "type": "string"
            },
            {
              "internalType": "string",
              "name": "disasterType",
              "type": "string"
            },
            {
              "internalType": "string",
              "name": "description",
              "type": "string"
            },
            {
              "internalType": "string",
              "name": "affectedAreas",
              "type": "string"
            },
            {
              "internalType": "uint256",
              "name": "affectedPeopleCount",
              "type": "uint256"
            },
            {
              "internalType": "uint256",
              "name": "targetCollectionAmount",
              "type": "uint256"
            },
            {
              "internalType": "uint256",
              "name": "totalCollectedAmount",
              "type": "uint256"
            },
            {
              "internalType": "address[]",
              "name": "reliefOrganizations",
              "type": "address[]"
            }
          ],
          "internalType": "struct DisasterDonate.DisasterView",
          "name": "disasterData",
          "type": "tuple"
        }
      ],
      "stateMutability": "view",
      "type": "function"
    },
    {
      "inputs": [
        {
          "internalType": "address",
          "name": "organization",
          "type": "address"
        }
      ],
      "name": "getOrganization",
      "outputs": [
        {
          "internalType": "string",
          "name": "name",
          "type": "string"
        },
        {
          "internalType": "uint256",
          "name": "totalDonations",
          "type": "uint256"
        }
      ],
      "stateMutability": "view",
      "type": "function"
    },
    {
      "inputs": [
        {
          "internalType": "address",
          "name": "organization",
          "type": "address"
        }
      ],
      "name": "getOrganizationTotalDonations",
      "outputs": [
        {
          "internalType": "uint256",
          "name": "",
          "type": "uint256"
        }
      ],
      "stateMutability": "view",
      "type": "function"
    },
    {
      "inputs": [
        {
          "internalType": "address",
          "name": "",
          "type": "address"
        }
      ],
      "name": "organizations",
      "outputs": [
        {
          "internalType": "string",
          "name": "name",
          "type": "string"
        },
        {
          "internalType": "uint256",
          "name": "totalDonations",
          "type": "uint256"
        }
      ],
      "stateMutability": "view",
      "type": "function"
    },
    {
      "inputs": [],
      "name": "owner",
      "outputs": [
        {
          "internalType": "address payable",
          "name": "",
          "type": "address"
        }
      ],
      "stateMutability": "view",
      "type": "function"
    },
    {
      "inputs": [],
      "name": "withdraw",
      "outputs": [],
      "stateMutability": "nonpayable",
      "type": "function"
    }
  ],
  "bytecode": "0x6080604052600060035534801561001557600080fd5b5033600260006101000a81548173ffffffffffffffffffffffffffffffffffffffff021916908373ffffffffffffffffffffffffffffffffffffffff16021790555061267f806100666000396000f3fe6080604052600436106100a75760003560e01c806369cbf44f1161006457806369cbf44f146101e75780638004f9fa146102105780638da5cb5b1461022c5780639bbebd7514610257578063b3292dce14610294578063d2c30a6d146102bf576100a7565b806334aa4d7d146100ac5780633527c108146100d55780633ccfd60b146101125780633cdb0d09146101295780635a1f74061461016c5780635c599334146101aa575b600080fd5b3480156100b857600080fd5b506100d360048036038101906100ce9190611ace565b6102fd565b005b3480156100e157600080fd5b506100fc60048036038101906100f79190611912565b61055f565b60405161010991906122a1565b60405180910390f35b34801561011e57600080fd5b506101276105ab565b005b34801561013557600080fd5b50610150600480360381019061014b9190611aa5565b6106a6565b60405161016397969594939291906120e4565b60405180910390f35b34801561017857600080fd5b50610193600480360381019061018e9190611912565b610908565b6040516101a192919061216f565b60405180910390f35b3480156101b657600080fd5b506101d160048036038101906101cc919061198f565b6109b4565b6040516101de91906122a1565b60405180910390f35b3480156101f357600080fd5b5061020e6004803603810190610209919061193b565b610c1a565b005b61022a60048036038101906102259190611ace565b610d05565b005b34801561023857600080fd5b50610241610e3a565b60405161024e91906120a7565b60405180910390f35b34801561026357600080fd5b5061027e60048036038101906102799190611aa5565b610e60565b60405161028b919061227f565b60405180910390f35b3480156102a057600080fd5b506102a9611193565b6040516102b691906120c2565b60405180910390f35b3480156102cb57600080fd5b506102e660048036038101906102e19190611912565b611596565b6040516102f492919061216f565b60405180910390f35b6003548210610341576040517f08c379a00000000000000000000000000000000000000000000000000000000081526004016103389061223f565b60405180910390fd5b6000600160008373ffffffffffffffffffffffffffffffffffffffff1673ffffffffffffffffffffffffffffffffffffffff168152602001908152602001600020600001805461039090612502565b905014156103d3576040517f08c379a00000000000000000000000000000000000000000000000000000000081526004016103ca906121ff565b60405180910390fd5b600080600084815260200190815260200160002090506000805b82600701805490508110156104b2578373ffffffffffffffffffffffffffffffffffffffff1683600701828154811061044f577f4e487b7100000000000000000000000000000000000000000000000000000000600052603260045260246000fd5b9060005260206000200160009054906101000a900473ffffffffffffffffffffffffffffffffffffffff1673ffffffffffffffffffffffffffffffffffffffff16141561049f57600191506104b2565b80806104aa90612534565b9150506103ed565b5080156104f4576040517f08c379a00000000000000000000000000000000000000000000000000000000081526004016104eb906121df565b60405180910390fd5b81600701839080600181540180825580915050600190039060005260206000200160009091909190916101000a81548173ffffffffffffffffffffffffffffffffffffffff021916908373ffffffffffffffffffffffffffffffffffffffff16021790555050505050565b6000600160008373ffffffffffffffffffffffffffffffffffffffff1673ffffffffffffffffffffffffffffffffffffffff168152602001908152602001600020600101549050919050565b600260009054906101000a900473ffffffffffffffffffffffffffffffffffffffff1673ffffffffffffffffffffffffffffffffffffffff163373ffffffffffffffffffffffffffffffffffffffff161461063b576040517f08c379a0000000000000000000000000000000000000000000000000000000008152600401610632906121bf565b60405180910390fd5b600260009054906101000a900473ffffffffffffffffffffffffffffffffffffffff1673ffffffffffffffffffffffffffffffffffffffff166108fc479081150290604051600060405180830381858888f193505050501580156106a3573d6000803e3d6000fd5b50565b60006020528060005260406000206000915090508060000180546106c990612502565b80601f01602080910402602001604051908101604052809291908181526020018280546106f590612502565b80156107425780601f1061071757610100808354040283529160200191610742565b820191906000526020600020905b81548152906001019060200180831161072557829003601f168201915b50505050509080600101805461075790612502565b80601f016020809104026020016040519081016040528092919081815260200182805461078390612502565b80156107d05780601f106107a5576101008083540402835291602001916107d0565b820191906000526020600020905b8154815290600101906020018083116107b357829003601f168201915b5050505050908060020180546107e590612502565b80601f016020809104026020016040519081016040528092919081815260200182805461081190612502565b801561085e5780601f106108335761010080835404028352916020019161085e565b820191906000526020600020905b81548152906001019060200180831161084157829003601f168201915b50505050509080600301805461087390612502565b80601f016020809104026020016040519081016040528092919081815260200182805461089f90612502565b80156108ec5780601f106108c1576101008083540402835291602001916108ec565b820191906000526020600020905b8154815290600101906020018083116108cf57829003601f168201915b5050505050908060040154908060050154908060060154905087565b600160205280600052604060002060009150905080600001805461092b90612502565b80601f016020809104026020016040519081016040528092919081815260200182805461095790612502565b80156109a45780601f10610979576101008083540402835291602001916109a4565b820191906000526020600020905b81548152906001019060200180831161098757829003601f168201915b5050505050908060010154905082565b6000600260009054906101000a900473ffffffffffffffffffffffffffffffffffffffff1673ffffffffffffffffffffffffffffffffffffffff163373ffffffffffffffffffffffffffffffffffffffff1614610a46576040517f08c379a0000000000000000000000000000000000000000000000000000000008152600401610a3d9061225f565b60405180910390fd5b60005b8251811015610b3757600060016000858481518110610a91577f4e487b7100000000000000000000000000000000000000000000000000000000600052603260045260246000fd5b602002602001015173ffffffffffffffffffffffffffffffffffffffff1673ffffffffffffffffffffffffffffffffffffffff1681526020019081526020016000206000018054610ae190612502565b90501415610b24576040517f08c379a0000000000000000000000000000000000000000000000000000000008152600401610b1b906121ff565b60405180910390fd5b8080610b2f90612534565b915050610a49565b50600080600060036000815480929190610b5090612534565b919050558152602001908152602001600020905088816000019080519060200190610b7c929190611678565b5087816001019080519060200190610b95929190611678565b5086816002019080519060200190610bae929190611678565b5085816003019080519060200190610bc7929190611678565b508481600401819055508381600501819055506000816006018190555082816007019080519060200190610bfc9291906116fe565b506001600354610c0c919061243e565b915050979650505050505050565b600260009054906101000a900473ffffffffffffffffffffffffffffffffffffffff1673ffffffffffffffffffffffffffffffffffffffff163373ffffffffffffffffffffffffffffffffffffffff1614610caa576040517f08c379a0000000000000000000000000000000000000000000000000000000008152600401610ca19061221f565b60405180910390fd5b81600160008373ffffffffffffffffffffffffffffffffffffffff1673ffffffffffffffffffffffffffffffffffffffff1681526020019081526020016000206000019080519060200190610d00929190611678565b505050565b60003411610d48576040517f08c379a0000000000000000000000000000000000000000000000000000000008152600401610d3f9061219f565b60405180910390fd5b3460008084815260200190815260200160002060080160008373ffffffffffffffffffffffffffffffffffffffff1673ffffffffffffffffffffffffffffffffffffffff1681526020019081526020016000206000828254610daa91906123e8565b9250508190555034600160008373ffffffffffffffffffffffffffffffffffffffff1673ffffffffffffffffffffffffffffffffffffffff1681526020019081526020016000206001016000828254610e0391906123e8565b92505081905550346000808481526020019081526020016000206006016000828254610e2f91906123e8565b925050819055505050565b600260009054906101000a900473ffffffffffffffffffffffffffffffffffffffff1681565b610e68611788565b60008060008481526020019081526020016000209050806000018054610e8d90612502565b80601f0160208091040260200160405190810160405280929190818152602001828054610eb990612502565b8015610f065780601f10610edb57610100808354040283529160200191610f06565b820191906000526020600020905b815481529060010190602001808311610ee957829003601f168201915b50505050508260000181905250806001018054610f2290612502565b80601f0160208091040260200160405190810160405280929190818152602001828054610f4e90612502565b8015610f9b5780601f10610f7057610100808354040283529160200191610f9b565b820191906000526020600020905b815481529060010190602001808311610f7e57829003601f168201915b50505050508260200181905250806002018054610fb790612502565b80601f0160208091040260200160405190810160405280929190818152602001828054610fe390612502565b80156110305780601f1061100557610100808354040283529160200191611030565b820191906000526020600020905b81548152906001019060200180831161101357829003601f168201915b5050505050826040018190525080600301805461104c90612502565b80601f016020809104026020016040519081016040528092919081815260200182805461107890612502565b80156110c55780601f1061109a576101008083540402835291602001916110c5565b820191906000526020600020905b8154815290600101906020018083116110a857829003601f168201915b50505050508260600181905250806004015482608001818152505080600501548260a001818152505080600601548260c00181815250508060070180548060200260200160405190810160405280929190818152602001828054801561118057602002820191906000526020600020905b8160009054906101000a900473ffffffffffffffffffffffffffffffffffffffff1673ffffffffffffffffffffffffffffffffffffffff1681526020019060010190808311611136575b50505050508260e0018190525050919050565b6060600060035467ffffffffffffffff8111156111d9577f4e487b7100000000000000000000000000000000000000000000000000000000600052604160045260246000fd5b60405190808252806020026020018201604052801561121257816020015b6111ff611788565b8152602001906001900390816111f75790505b50905060005b60035481101561158e576000806000838152602001908152602001600020905060405180610100016040528082600001805461125390612502565b80601f016020809104026020016040519081016040528092919081815260200182805461127f90612502565b80156112cc5780601f106112a1576101008083540402835291602001916112cc565b820191906000526020600020905b8154815290600101906020018083116112af57829003601f168201915b505050505081526020018260010180546112e590612502565b80601f016020809104026020016040519081016040528092919081815260200182805461131190612502565b801561135e5780601f106113335761010080835404028352916020019161135e565b820191906000526020600020905b81548152906001019060200180831161134157829003601f168201915b5050505050815260200182600201805461137790612502565b80601f01602080910402602001604051908101604052809291908181526020018280546113a390612502565b80156113f05780601f106113c5576101008083540402835291602001916113f0565b820191906000526020600020905b8154815290600101906020018083116113d357829003601f168201915b5050505050815260200182600301805461140990612502565b80601f016020809104026020016040519081016040528092919081815260200182805461143590612502565b80156114825780601f1061145757610100808354040283529160200191611482565b820191906000526020600020905b81548152906001019060200180831161146557829003601f168201915b505050505081526020018260040154815260200182600501548152602001826006015481526020018260070180548060200260200160405190810160405280929190818152602001828054801561152e57602002820191906000526020600020905b8160009054906101000a900473ffffffffffffffffffffffffffffffffffffffff1673ffffffffffffffffffffffffffffffffffffffff16815260200190600101908083116114e4575b505050505081525083838151811061156f577f4e487b7100000000000000000000000000000000000000000000000000000000600052603260045260246000fd5b602002602001018190525050808061158690612534565b915050611218565b508091505090565b6060600080600160008573ffffffffffffffffffffffffffffffffffffffff1673ffffffffffffffffffffffffffffffffffffffff16815260200190815260200160002090508060000180546115eb90612502565b80601f016020809104026020016040519081016040528092919081815260200182805461161790612502565b80156116645780601f1061163957610100808354040283529160200191611664565b820191906000526020600020905b81548152906001019060200180831161164757829003601f168201915b505050505092508060010154915050915091565b82805461168490612502565b90600052602060002090601f0160209004810192826116a657600085556116ed565b82601f106116bf57805160ff19168380011785556116ed565b828001600101855582156116ed579182015b828111156116ec5782518255916020019190600101906116d1565b5b5090506116fa91906117cd565b5090565b828054828255906000526020600020908101928215611777579160200282015b828111156117765782518260006101000a81548173ffffffffffffffffffffffffffffffffffffffff021916908373ffffffffffffffffffffffffffffffffffffffff1602179055509160200191906001019061171e565b5b50905061178491906117cd565b5090565b60405180610100016040528060608152602001606081526020016060815260200160608152602001600081526020016000815260200160008152602001606081525090565b5b808211156117e65760008160009055506001016117ce565b5090565b60006117fd6117f8846122ed565b6122bc565b9050808382526020820190508285602086028201111561181c57600080fd5b60005b8581101561184c57816118328882611894565b84526020840193506020830192505060018101905061181f565b5050509392505050565b600061186961186484612319565b6122bc565b90508281526020810184848401111561188157600080fd5b61188c8482856124c0565b509392505050565b6000813590506118a38161261b565b92915050565b600082601f8301126118ba57600080fd5b81356118ca8482602086016117ea565b91505092915050565b600082601f8301126118e457600080fd5b81356118f4848260208601611856565b91505092915050565b60008135905061190c81612632565b92915050565b60006020828403121561192457600080fd5b600061193284828501611894565b91505092915050565b6000806040838503121561194e57600080fd5b600083013567ffffffffffffffff81111561196857600080fd5b611974858286016118d3565b925050602061198585828601611894565b9150509250929050565b600080600080600080600060e0888a0312156119aa57600080fd5b600088013567ffffffffffffffff8111156119c457600080fd5b6119d08a828b016118d3565b975050602088013567ffffffffffffffff8111156119ed57600080fd5b6119f98a828b016118d3565b965050604088013567ffffffffffffffff811115611a1657600080fd5b611a228a828b016118d3565b955050606088013567ffffffffffffffff811115611a3f57600080fd5b611a4b8a828b016118d3565b9450506080611a5c8a828b016118fd565b93505060a0611a6d8a828b016118fd565b92505060c088013567ffffffffffffffff811115611a8a57600080fd5b611a968a828b016118a9565b91505092959891949750929550565b600060208284031215611ab757600080fd5b6000611ac5848285016118fd565b91505092915050565b60008060408385031215611ae157600080fd5b6000611aef858286016118fd565b9250506020611b0085828601611894565b9150509250929050565b6000611b168383611b45565b60208301905092915050565b6000611b2e8383611ef1565b905092915050565b611b3f81612484565b82525050565b611b4e81612472565b82525050565b6000611b5f82612369565b611b6981856123a4565b9350611b7483612349565b8060005b83811015611ba5578151611b8c8882611b0a565b9750611b978361238a565b925050600181019050611b78565b5085935050505092915050565b6000611bbd82612374565b611bc781856123b5565b935083602082028501611bd985612359565b8060005b85811015611c155784840389528151611bf68582611b22565b9450611c0183612397565b925060208a01995050600181019050611bdd565b50829750879550505050505092915050565b6000611c328261237f565b611c3c81856123c6565b9350611c4c8185602086016124cf565b611c558161260a565b840191505092915050565b6000611c6b8261237f565b611c7581856123d7565b9350611c858185602086016124cf565b611c8e8161260a565b840191505092915050565b6000611ca66026836123d7565b91507f446f6e6174696f6e20616d6f756e74206d75737420626520677265617465722060008301527f7468616e203000000000000000000000000000000000000000000000000000006020830152604082019050919050565b6000611d0c601d836123d7565b91507f4f6e6c79206f776e65722063616e2077697468647261772066756e64730000006000830152602082019050919050565b6000611d4c6026836123d7565b91507f4f7267616e697a6174696f6e20616c726561647920616464656420746f20646960008301527f73617374657200000000000000000000000000000000000000000000000000006020830152604082019050919050565b6000611db26022836123d7565b91507f52656c696566206f7267616e697a6174696f6e20646f6573206e6f742065786960008301527f73740000000000000000000000000000000000000000000000000000000000006020830152604082019050919050565b6000611e186022836123d7565b91507f4f6e6c79206f776e65722063616e20637265617465206f7267616e697a61746960008301527f6f6e0000000000000000000000000000000000000000000000000000000000006020830152604082019050919050565b6000611e7e6013836123d7565b91507f496e76616c6964206469736173746572206964000000000000000000000000006000830152602082019050919050565b6000611ebe601e836123d7565b91507f4f6e6c79206f776e65722063616e2063726561746520646973617374657200006000830152602082019050919050565b6000610100830160008301518482036000860152611f0f8282611c27565b91505060208301518482036020860152611f298282611c27565b91505060408301518482036040860152611f438282611c27565b91505060608301518482036060860152611f5d8282611c27565b9150506080830151611f726080860182612089565b5060a0830151611f8560a0860182612089565b5060c0830151611f9860c0860182612089565b5060e083015184820360e0860152611fb08282611b54565b9150508091505092915050565b6000610100830160008301518482036000860152611fdb8282611c27565b91505060208301518482036020860152611ff58282611c27565b9150506040830151848203604086015261200f8282611c27565b915050606083015184820360608601526120298282611c27565b915050608083015161203e6080860182612089565b5060a083015161205160a0860182612089565b5060c083015161206460c0860182612089565b5060e083015184820360e086015261207c8282611b54565b9150508091505092915050565b612092816124b6565b82525050565b6120a1816124b6565b82525050565b60006020820190506120bc6000830184611b36565b92915050565b600060208201905081810360008301526120dc8184611bb2565b905092915050565b600060e08201905081810360008301526120fe818a611c60565b905081810360208301526121128189611c60565b905081810360408301526121268188611c60565b9050818103606083015261213a8187611c60565b90506121496080830186612098565b61215660a0830185612098565b61216360c0830184612098565b98975050505050505050565b600060408201905081810360008301526121898185611c60565b90506121986020830184612098565b9392505050565b600060208201905081810360008301526121b881611c99565b9050919050565b600060208201905081810360008301526121d881611cff565b9050919050565b600060208201905081810360008301526121f881611d3f565b9050919050565b6000602082019050818103600083015261221881611da5565b9050919050565b6000602082019050818103600083015261223881611e0b565b9050919050565b6000602082019050818103600083015261225881611e71565b9050919050565b6000602082019050818103600083015261227881611eb1565b9050919050565b600060208201905081810360008301526122998184611fbd565b905092915050565b60006020820190506122b66000830184612098565b92915050565b6000604051905081810181811067ffffffffffffffff821117156122e3576122e26125db565b5b8060405250919050565b600067ffffffffffffffff821115612308576123076125db565b5b602082029050602081019050919050565b600067ffffffffffffffff821115612334576123336125db565b5b601f19601f8301169050602081019050919050565b6000819050602082019050919050565b6000819050602082019050919050565b600081519050919050565b600081519050919050565b600081519050919050565b6000602082019050919050565b6000602082019050919050565b600082825260208201905092915050565b600082825260208201905092915050565b600082825260208201905092915050565b600082825260208201905092915050565b60006123f3826124b6565b91506123fe836124b6565b9250827fffffffffffffffffffffffffffffffffffffffffffffffffffffffffffffffff038211156124335761243261257d565b5b828201905092915050565b6000612449826124b6565b9150612454836124b6565b9250828210156124675761246661257d565b5b828203905092915050565b600061247d82612496565b9050919050565b600061248f82612496565b9050919050565b600073ffffffffffffffffffffffffffffffffffffffff82169050919050565b6000819050919050565b82818337600083830152505050565b60005b838110156124ed5780820151818401526020810190506124d2565b838111156124fc576000848401525b50505050565b6000600282049050600182168061251a57607f821691505b6020821081141561252e5761252d6125ac565b5b50919050565b600061253f826124b6565b91507fffffffffffffffffffffffffffffffffffffffffffffffffffffffffffffffff8214156125725761257161257d565b5b600182019050919050565b7f4e487b7100000000000000000000000000000000000000000000000000000000600052601160045260246000fd5b7f4e487b7100000000000000000000000000000000000000000000000000000000600052602260045260246000fd5b7f4e487b7100000000000000000000000000000000000000000000000000000000600052604160045260246000fd5b6000601f19601f8301169050919050565b61262481612472565b811461262f57600080fd5b50565b61263b816124b6565b811461264657600080fd5b5056fea2646970667358221220a15b65065d4654a27e0f8d706a2f974013bac4abdf3bc4973bbbc207b9d9d38a64736f6c63430008000033",
  "linkReferences": {},
  "deployedLinkReferences": {}
}